{
  "contractName": "Remittance",
  "abi": [
    {
      "constant": false,
      "inputs": [
        {
          "name": "onOff",
          "type": "bool"
        }
      ],
      "name": "runSwitch",
      "outputs": [
        {
          "name": "success",
          "type": "bool"
        }
      ],
      "payable": false,
      "stateMutability": "nonpayable",
      "type": "function"
    },
    {
      "constant": false,
      "inputs": [],
      "name": "renounceOwnership",
      "outputs": [],
      "payable": false,
      "stateMutability": "nonpayable",
      "type": "function"
    },
    {
      "constant": true,
      "inputs": [],
      "name": "owner",
      "outputs": [
        {
          "name": "",
          "type": "address"
        }
      ],
      "payable": false,
      "stateMutability": "view",
      "type": "function"
    },
    {
      "constant": true,
      "inputs": [],
      "name": "isOwner",
      "outputs": [
        {
          "name": "",
          "type": "bool"
        }
      ],
      "payable": false,
      "stateMutability": "view",
      "type": "function"
    },
    {
      "constant": true,
      "inputs": [
        {
          "name": "",
          "type": "uint256"
        }
      ],
      "name": "remittances",
      "outputs": [
        {
          "name": "sender",
          "type": "address"
        },
        {
          "name": "receiver",
          "type": "address"
        },
        {
          "name": "pwHash",
          "type": "bytes32"
        },
        {
          "name": "amount",
          "type": "uint256"
        },
        {
          "name": "deadline",
          "type": "uint256"
        }
      ],
      "payable": false,
      "stateMutability": "view",
      "type": "function"
    },
    {
      "constant": true,
      "inputs": [],
      "name": "running",
      "outputs": [
        {
          "name": "",
          "type": "bool"
        }
      ],
      "payable": false,
      "stateMutability": "view",
      "type": "function"
    },
    {
      "constant": false,
      "inputs": [
        {
          "name": "newOwner",
          "type": "address"
        }
      ],
      "name": "transferOwnership",
      "outputs": [],
      "payable": false,
      "stateMutability": "nonpayable",
      "type": "function"
    },
    {
      "inputs": [],
      "payable": false,
      "stateMutability": "nonpayable",
      "type": "constructor"
    },
    {
      "anonymous": false,
      "inputs": [
        {
          "indexed": true,
          "name": "sender",
          "type": "address"
        },
        {
          "indexed": true,
          "name": "receiver",
          "type": "address"
        },
        {
          "indexed": true,
          "name": "remittanceIndex",
          "type": "uint256"
        },
        {
          "indexed": false,
          "name": "amount",
          "type": "uint256"
        }
      ],
      "name": "LogRemittanceCreation",
      "type": "event"
    },
    {
      "anonymous": false,
      "inputs": [
        {
          "indexed": true,
          "name": "sender",
          "type": "address"
        },
        {
          "indexed": true,
          "name": "receiver",
          "type": "address"
        },
        {
          "indexed": true,
          "name": "remittanceIndex",
          "type": "uint256"
        },
        {
          "indexed": false,
          "name": "amount",
          "type": "uint256"
        }
      ],
      "name": "LogRemittancewithdrawal",
      "type": "event"
    },
    {
      "anonymous": false,
      "inputs": [
        {
          "indexed": true,
          "name": "sender",
          "type": "address"
        },
        {
          "indexed": true,
          "name": "receiver",
          "type": "address"
        },
        {
          "indexed": true,
          "name": "remittanceIndex",
          "type": "uint256"
        },
        {
          "indexed": false,
          "name": "amount",
          "type": "uint256"
        }
      ],
      "name": "LogRemittanceCanceledAndWithdrawn",
      "type": "event"
    },
    {
      "anonymous": false,
      "inputs": [
        {
          "indexed": false,
          "name": "sender",
          "type": "address"
        },
        {
          "indexed": false,
          "name": "switchSetting",
          "type": "bool"
        }
      ],
      "name": "LogRunSwitch",
      "type": "event"
    },
    {
      "anonymous": false,
      "inputs": [
        {
          "indexed": true,
          "name": "previousOwner",
          "type": "address"
        },
        {
          "indexed": true,
          "name": "newOwner",
          "type": "address"
        }
      ],
      "name": "OwnershipTransferred",
      "type": "event"
    },
    {
      "constant": false,
      "inputs": [
        {
          "name": "receiver",
          "type": "address"
        },
        {
          "name": "pwHash",
          "type": "bytes32"
        }
      ],
      "name": "createRemittance",
      "outputs": [
        {
          "name": "_index",
          "type": "uint256"
        }
      ],
      "payable": true,
      "stateMutability": "payable",
      "type": "function"
    },
    {
      "constant": false,
      "inputs": [
        {
          "name": "_index",
          "type": "uint256"
        },
        {
          "name": "pw1",
          "type": "string"
        },
        {
          "name": "pw2",
          "type": "string"
        }
      ],
      "name": "withdrawRemittance",
      "outputs": [
        {
          "name": "success",
          "type": "bool"
        }
      ],
      "payable": false,
      "stateMutability": "nonpayable",
      "type": "function"
    },
    {
      "constant": false,
      "inputs": [
        {
          "name": "_index",
          "type": "uint256"
        }
      ],
      "name": "senderWithdrawRemittance",
      "outputs": [
        {
          "name": "success",
          "type": "bool"
        }
      ],
      "payable": false,
      "stateMutability": "nonpayable",
      "type": "function"
    }
  ],
  "bytecode": "0x608060405234801561001057600080fd5b50336000806101000a81548173ffffffffffffffffffffffffffffffffffffffff021916908373ffffffffffffffffffffffffffffffffffffffff1602179055506000809054906101000a900473ffffffffffffffffffffffffffffffffffffffff1673ffffffffffffffffffffffffffffffffffffffff16600073ffffffffffffffffffffffffffffffffffffffff167f8be0079c531659141344cd1fd0a4f28419497f9722a3daafe3b4186f6b6457e060405160405180910390a36001600060146101000a81548160ff021916908315150217905550600060028190555061168e806100ff6000396000f3fe6080604052600436106100a4576000357c0100000000000000000000000000000000000000000000000000000000900463ffffffff1680632c98c2d2146100a95780632dd970581461022a57806340b4d9591461027f578063715018a6146102e15780637708634c146102f85780638da5cb5b1461034b5780638f32d59b146103a2578063b4ea0d5f146103d1578063d85bd52614610494578063f2fde38b146104c3575b600080fd5b3480156100b557600080fd5b50610210600480360360608110156100cc57600080fd5b8101908080359060200190929190803590602001906401000000008111156100f357600080fd5b82018360208201111561010557600080fd5b8035906020019184600183028401116401000000008311171561012757600080fd5b91908080601f016020809104026020016040519081016040528093929190818152602001838380828437600081840152601f19601f8201169050808301925050505050505091929192908035906020019064010000000081111561018a57600080fd5b82018360208201111561019c57600080fd5b803590602001918460018302840111640100000000831117156101be57600080fd5b91908080601f016020809104026020016040519081016040528093929190818152602001838380828437600081840152601f19601f820116905080830192505050505050509192919290505050610514565b604051808215151515815260200191505060405180910390f35b34801561023657600080fd5b506102656004803603602081101561024d57600080fd5b81019080803515159060200190929190505050610a54565b604051808215151515815260200191505060405180910390f35b6102cb6004803603604081101561029557600080fd5b81019080803573ffffffffffffffffffffffffffffffffffffffff16906020019092919080359060200190929190505050610b64565b6040518082815260200191505060405180910390f35b3480156102ed57600080fd5b506102f6610e5f565b005b34801561030457600080fd5b506103316004803603602081101561031b57600080fd5b8101908080359060200190929190505050610f9a565b604051808215151515815260200191505060405180910390f35b34801561035757600080fd5b506103606112be565b604051808273ffffffffffffffffffffffffffffffffffffffff1673ffffffffffffffffffffffffffffffffffffffff16815260200191505060405180910390f35b3480156103ae57600080fd5b506103b76112e7565b604051808215151515815260200191505060405180910390f35b3480156103dd57600080fd5b5061040a600480360360208110156103f457600080fd5b810190808035906020019092919050505061133e565b604051808673ffffffffffffffffffffffffffffffffffffffff1673ffffffffffffffffffffffffffffffffffffffff1681526020018573ffffffffffffffffffffffffffffffffffffffff1673ffffffffffffffffffffffffffffffffffffffff1681526020018481526020018381526020018281526020019550505050505060405180910390f35b3480156104a057600080fd5b506104a96113b4565b604051808215151515815260200191505060405180910390f35b3480156104cf57600080fd5b50610512600480360360208110156104e657600080fd5b81019080803573ffffffffffffffffffffffffffffffffffffffff1690602001909291905050506113c7565b005b60008060149054906101000a900460ff16151561053057600080fd5b60006001600086815260200190815260200160002090503373ffffffffffffffffffffffffffffffffffffffff168160010160009054906101000a900473ffffffffffffffffffffffffffffffffffffffff1673ffffffffffffffffffffffffffffffffffffffff16141515610634576040517f08c379a000000000000000000000000000000000000000000000000000000000815260040180806020018281038252602a8152602001807f596f75277265206e6f7420746865207265636569766572206f6620746869732081526020017f72656d697474616e63650000000000000000000000000000000000000000000081525060400191505060405180910390fd5b600081600301541115156106d6576040517f08c379a000000000000000000000000000000000000000000000000000000000815260040180806020018281038252602f8152602001807f636865636b20696620616d6f756e74206f662072656d697474616e636520697381526020017f2067726561746572207468616e2030000000000000000000000000000000000081525060400191505060405180910390fd5b83836040516020018083805190602001908083835b60208310151561071057805182526020820191506020810190506020830392506106eb565b6001836020036101000a03801982511681845116808217855250505050505090500182805190602001908083835b602083101515610763578051825260208201915060208101905060208303925061073e565b6001836020036101000a03801982511681845116808217855250505050505090500192505050604051602081830303815290604052805190602001208160020154148061087b575082846040516020018083805190602001908083835b6020831015156107e557805182526020820191506020810190506020830392506107c0565b6001836020036101000a03801982511681845116808217855250505050505090500182805190602001908083835b6020831015156108385780518252602082019150602081019050602083039250610813565b6001836020036101000a03801982511681845116808217855250505050505090500192505050604051602081830303815290604052805190602001208160020154145b15156108ef576040517f08c379a000000000000000000000000000000000000000000000000000000000815260040180806020018281038252600e8152602001807f77726f6e672070617373776f726400000000000000000000000000000000000081525060200191505060405180910390fd5b60008160030154905060016000878152602001908152602001600020600080820160006101000a81549073ffffffffffffffffffffffffffffffffffffffff02191690556001820160006101000a81549073ffffffffffffffffffffffffffffffffffffffff021916905560028201600090556003820160009055600482016000905550506002543373ffffffffffffffffffffffffffffffffffffffff168360000160009054906101000a900473ffffffffffffffffffffffffffffffffffffffff1673ffffffffffffffffffffffffffffffffffffffff167f325673f7d5d93ce0442be862c5062ef08921b9fd4267db23f25120f924cd7bca846040518082815260200191505060405180910390a43373ffffffffffffffffffffffffffffffffffffffff166108fc829081150290604051600060405180830381858888f19350505050158015610a46573d6000803e3d6000fd5b506001925050509392505050565b6000610a5e6112e7565b1515610ad2576040517f08c379a00000000000000000000000000000000000000000000000000000000081526004018080602001828103825260208152602001807f4f776e61626c653a2063616c6c6572206973206e6f7420746865206f776e657281525060200191505060405180910390fd5b81600060146101000a81548160ff0219169083151502179055507fe149139e745b87d23672d6d1bd3f9160008dc717a946188ef8c5155e4ee6b8453383604051808373ffffffffffffffffffffffffffffffffffffffff1673ffffffffffffffffffffffffffffffffffffffff168152602001821515151581526020019250505060405180910390a160019050919050565b60008060149054906101000a900460ff161515610b8057600080fd5b600034111515610bf8576040517f08c379a00000000000000000000000000000000000000000000000000000000081526004018080602001828103825260178152602001807f596f752063616e6e6f742073656e64203020657468657200000000000000000081525060200191505060405180910390fd5b600073ffffffffffffffffffffffffffffffffffffffff168373ffffffffffffffffffffffffffffffffffffffff1614151515610c9d576040517f08c379a00000000000000000000000000000000000000000000000000000000081526004018080602001828103825260208152602001807f41646472657373206d757374206e6f74206265206e756c6c206164647265737381525060200191505060405180910390fd5b6000610cb56202a3004261144f90919063ffffffff16565b905060a0604051908101604052803373ffffffffffffffffffffffffffffffffffffffff1681526020018573ffffffffffffffffffffffffffffffffffffffff1681526020018481526020013481526020018281525060016000600254815260200190815260200160002060008201518160000160006101000a81548173ffffffffffffffffffffffffffffffffffffffff021916908373ffffffffffffffffffffffffffffffffffffffff16021790555060208201518160010160006101000a81548173ffffffffffffffffffffffffffffffffffffffff021916908373ffffffffffffffffffffffffffffffffffffffff1602179055506040820151816002015560608201518160030155608082015181600401559050506002548473ffffffffffffffffffffffffffffffffffffffff163373ffffffffffffffffffffffffffffffffffffffff167f2b455dd38eb8b0a4f6a09a270ef4de4330d69ebfca51c67f675bc7b7a77a03d0346040518082815260200191505060405180910390a4610e4d600160025461144f90919063ffffffff16565b60028190555060025491505092915050565b610e676112e7565b1515610edb576040517f08c379a00000000000000000000000000000000000000000000000000000000081526004018080602001828103825260208152602001807f4f776e61626c653a2063616c6c6572206973206e6f7420746865206f776e657281525060200191505060405180910390fd5b600073ffffffffffffffffffffffffffffffffffffffff166000809054906101000a900473ffffffffffffffffffffffffffffffffffffffff1673ffffffffffffffffffffffffffffffffffffffff167f8be0079c531659141344cd1fd0a4f28419497f9722a3daafe3b4186f6b6457e060405160405180910390a360008060006101000a81548173ffffffffffffffffffffffffffffffffffffffff021916908373ffffffffffffffffffffffffffffffffffffffff160217905550565b60008060149054906101000a900460ff161515610fb657600080fd5b60006001600084815260200190815260200160002090503373ffffffffffffffffffffffffffffffffffffffff168160000160009054906101000a900473ffffffffffffffffffffffffffffffffffffffff1673ffffffffffffffffffffffffffffffffffffffff161415156110ba576040517f08c379a00000000000000000000000000000000000000000000000000000000081526004018080602001828103825260288152602001807f596f7520617265206e6f74207468652073656e646572206f662074686520726581526020017f6d697474616e636500000000000000000000000000000000000000000000000081525060400191505060405180910390fd5b42816004015410151561115b576040517f08c379a00000000000000000000000000000000000000000000000000000000081526004018080602001828103825260228152602001807f596f752063616e6e6f7420776974686472617720796f75722066756e6473207981526020017f657400000000000000000000000000000000000000000000000000000000000081525060400191505060405180910390fd5b60008160030154905060016000858152602001908152602001600020600080820160006101000a81549073ffffffffffffffffffffffffffffffffffffffff02191690556001820160006101000a81549073ffffffffffffffffffffffffffffffffffffffff021916905560028201600090556003820160009055600482016000905550506002543373ffffffffffffffffffffffffffffffffffffffff168360000160009054906101000a900473ffffffffffffffffffffffffffffffffffffffff1673ffffffffffffffffffffffffffffffffffffffff167f706d3fb608240fbc13c3ac90c2715a27ba669a4eceee01bbfbb29eec60ca4506846040518082815260200191505060405180910390a43373ffffffffffffffffffffffffffffffffffffffff166108fc829081150290604051600060405180830381858888f193505050501580156112b2573d6000803e3d6000fd5b50600192505050919050565b60008060009054906101000a900473ffffffffffffffffffffffffffffffffffffffff16905090565b60008060009054906101000a900473ffffffffffffffffffffffffffffffffffffffff1673ffffffffffffffffffffffffffffffffffffffff163373ffffffffffffffffffffffffffffffffffffffff1614905090565b60016020528060005260406000206000915090508060000160009054906101000a900473ffffffffffffffffffffffffffffffffffffffff16908060010160009054906101000a900473ffffffffffffffffffffffffffffffffffffffff16908060020154908060030154908060040154905085565b600060149054906101000a900460ff1681565b6113cf6112e7565b1515611443576040517f08c379a00000000000000000000000000000000000000000000000000000000081526004018080602001828103825260208152602001807f4f776e61626c653a2063616c6c6572206973206e6f7420746865206f776e657281525060200191505060405180910390fd5b61144c816114d9565b50565b60008082840190508381101515156114cf576040517f08c379a000000000000000000000000000000000000000000000000000000000815260040180806020018281038252601b8152602001807f536166654d6174683a206164646974696f6e206f766572666c6f77000000000081525060200191505060405180910390fd5b8091505092915050565b600073ffffffffffffffffffffffffffffffffffffffff168173ffffffffffffffffffffffffffffffffffffffff16141515156115a4576040517f08c379a00000000000000000000000000000000000000000000000000000000081526004018080602001828103825260268152602001807f4f776e61626c653a206e6577206f776e657220697320746865207a65726f206181526020017f646472657373000000000000000000000000000000000000000000000000000081525060400191505060405180910390fd5b8073ffffffffffffffffffffffffffffffffffffffff166000809054906101000a900473ffffffffffffffffffffffffffffffffffffffff1673ffffffffffffffffffffffffffffffffffffffff167f8be0079c531659141344cd1fd0a4f28419497f9722a3daafe3b4186f6b6457e060405160405180910390a3806000806101000a81548173ffffffffffffffffffffffffffffffffffffffff021916908373ffffffffffffffffffffffffffffffffffffffff1602179055505056fea165627a7a723058204a363e4fcb9343eab48eaf450dd71258426abd9b8d48837321e6f5987dfd6f480029",
  "source": "pragma solidity >=0.4.21 <0.6.0;\n\nimport './SafeMath.sol';\nimport './Stoppable.sol';\n\n/// @title Remittance - Transfer ETH via a local exchange\n/// @author hilmarx\n/// @notice You can use this contract to transfer ETH to a recipient that does not hold an ethereum address through a trusted third party, without giving that party the ability to withdraw the funds without the actual recipients permission\n/// @dev This is a test version, please don't use in production\n\ncontract Remittance is Stoppable {\n    \n    using SafeMath for uint256;\n    \n    // State variables\n    \n    // Struct storing individual remittances\n    struct SingleRemittance {\n        address sender;\n        address receiver;\n        bytes32 pwHash;\n        uint amount;\n        uint deadline;\n    }\n\n    // Mapping to store all Single Remittances\n    mapping(uint => SingleRemittance) public remittances;\n\n    // Index for searching through remittances mapping. Only contract can modify it\n    uint internal index;\n\n    // Event Listeners\n\n    // Event when Remittance gets created\n    event LogRemittanceCreation(address indexed sender, address indexed receiver, uint indexed remittanceIndex, uint amount);\n\n    // Event when Remittance gets withdrawn by receiver\n    event LogRemittancewithdrawal(address indexed sender, address indexed receiver, uint indexed remittanceIndex, uint amount);\n\n    // Event when Remittance gets cancelled and withdrawn by sender\n    event LogRemittanceCanceledAndWithdrawn(address indexed sender, address indexed receiver, uint indexed remittanceIndex, uint amount);\n\n    constructor() public {\n        index = 0;\n    }\n\n    ///@dev create Remittance with receiver address and pwHash\n    function createRemittance(address receiver, bytes32 pwHash)\n        public\n        payable\n        onlyIfRunning\n        returns (uint _index) \n    {\n        // Check if msg.value is greater than 0\n        require( msg.value > 0, \"You cannot send 0 ether\" );\n\n        // Check if receiver address is not null address\n        require( receiver != address(0), \"Address must not be null address\" );\n\n        // Set deadline to now + 48 hours\n\n        uint newDeadline = now.add(172800);\n\n        // Create new Single Remittance and store in the remittance mapping\n        remittances[index] = SingleRemittance(msg.sender, receiver, pwHash, msg.value, newDeadline);\n       \n        // Emit event that Remittance was created\n        emit LogRemittanceCreation(msg.sender, receiver, index, msg.value);\n        \n        // increase index counter\n        index = index.add(1);\n\n        return index;\n    }\n\n    ///@dev enables receiver of remittance to withdraw their funds from the remittance\n    function withdrawRemittance(uint _index, string memory pw1, string memory pw2) \n    public \n    onlyIfRunning\n    returns (bool success)\n    {\n        // Get the respective Single Remittances using the index\n        SingleRemittance storage selectedRemittance = remittances[_index];\n\n        // Check if msg.sender is receiver\n        require(selectedRemittance.receiver == msg.sender, \"You're not the receiver of this remittance\");\n\n        // Check if amount in Remittance is greater than 0\n        require(selectedRemittance.amount > 0, \"check if amount of remittance is greater than 0\");\n\n        // Check if passwords were inputted correctly\n        require(selectedRemittance.pwHash == keccak256(abi.encodePacked(pw1, pw2)) ||selectedRemittance.pwHash == keccak256(abi.encodePacked(pw2, pw1)), \"wrong password\");\n\n        // Store withdrawal amount to be used after Remittance gets deleted\n        uint withdrawAmount = selectedRemittance.amount;\n\n        // Delete selectedRemittance from storage mapping\n        delete remittances[_index];\n\n        // emit withdrawal event\n        emit LogRemittancewithdrawal(selectedRemittance.sender, msg.sender, index, withdrawAmount);\n\n        // Transfer funds to receiver\n        msg.sender.transfer(withdrawAmount);\n\n        return true;\n    }\n\n    function senderWithdrawRemittance(uint _index) \n        public \n        onlyIfRunning\n        returns (bool success)\n    {\n        // Get the respective Single Remittances using the index\n        SingleRemittance storage selectedRemittance = remittances[_index];\n\n        // Make sure sender is msg.sender\n        require(selectedRemittance.sender == msg.sender, \"You are not the sender of the remittance\");\n\n        // Make sure deadline unix timestamp is smaller than the current time\n        require(selectedRemittance.deadline < now, \"You cannot withdraw your funds yet\");\n\n        // Store withdrawal amount to be used after Remittance gets deleted\n        uint withdrawAmount = selectedRemittance.amount;\n\n        // Delete selectedRemittance from storage mapping\n        delete remittances[_index];\n\n        // emit withdrawal event\n        emit LogRemittanceCanceledAndWithdrawn(selectedRemittance.sender, msg.sender, index, withdrawAmount);\n\n        // Transfer funds to receiver\n        msg.sender.transfer(withdrawAmount);\n\n        return true;\n\n    }\n}\n\n",
  "sourcePath": "/Users/Hilmar/code/tutorials/b9lab/remittance/contracts/Remittance.sol",
  "compiler": {
    "name": "solc",
    "version": "0.5.0+commit.1d4f565a.Emscripten.clang"
  },
  "schemaVersion": "3.0.9",
  "updatedAt": "2019-05-27T18:09:21.816Z",
  "devdoc": {
    "author": "hilmarx",
    "details": "This is a test version, please don't use in production",
    "methods": {
      "createRemittance(address,bytes32)": {
        "details": "create Remittance with receiver address and pwHash"
      },
      "isOwner()": {
        "details": "Returns true if the caller is the current owner."
      },
      "owner()": {
        "details": "Returns the address of the current owner."
      },
      "renounceOwnership()": {
        "details": "Leaves the contract without owner. It will not be possible to call `onlyOwner` functions anymore. Can only be called by the current owner.     * > Note: Renouncing ownership will leave the contract without an owner, thereby removing any functionality that is only available to the owner."
      },
      "transferOwnership(address)": {
        "details": "Transfers ownership of the contract to a new account (`newOwner`). Can only be called by the current owner."
      },
      "withdrawRemittance(uint256,string,string)": {
        "details": "enables receiver of remittance to withdraw their funds from the remittance"
      }
    },
    "title": "Remittance - Transfer ETH via a local exchange"
  },
  "userdoc": {
    "methods": {},
    "notice": "You can use this contract to transfer ETH to a recipient that does not hold an ethereum address through a trusted third party, without giving that party the ability to withdraw the funds without the actual recipients permission"
  }
}